{
  "_format": "hh-sol-artifact-1",
  "contractName": "BookWall",
  "sourceName": "contracts/BookWall.sol",
  "abi": [
    {
      "inputs": [],
      "stateMutability": "payable",
      "type": "constructor"
    },
    {
      "anonymous": false,
      "inputs": [
        {
          "indexed": true,
          "internalType": "address",
          "name": "from",
          "type": "address"
        },
        {
          "indexed": false,
          "internalType": "uint256",
          "name": "timestamp",
          "type": "uint256"
        },
        {
          "indexed": false,
          "internalType": "string",
          "name": "message",
          "type": "string"
        }
      ],
      "name": "NewBook",
      "type": "event"
    },
    {
      "inputs": [
        {
          "internalType": "string",
          "name": "_message",
          "type": "string"
        }
      ],
      "name": "book",
      "outputs": [],
      "stateMutability": "nonpayable",
      "type": "function"
    },
    {
      "inputs": [],
      "name": "getAllBooks",
      "outputs": [
        {
          "components": [
            {
              "internalType": "address",
              "name": "recommender",
              "type": "address"
            },
            {
              "internalType": "string",
              "name": "message",
              "type": "string"
            },
            {
              "internalType": "uint256",
              "name": "timestamp",
              "type": "uint256"
            }
          ],
          "internalType": "struct BookWall.Book[]",
          "name": "",
          "type": "tuple[]"
        }
      ],
      "stateMutability": "view",
      "type": "function"
    },
    {
      "inputs": [],
      "name": "getTotalBooks",
      "outputs": [
        {
          "internalType": "uint256",
          "name": "",
          "type": "uint256"
        }
      ],
      "stateMutability": "view",
      "type": "function"
    },
    {
      "inputs": [
        {
          "internalType": "address",
          "name": "",
          "type": "address"
        }
      ],
      "name": "lastRecommended",
      "outputs": [
        {
          "internalType": "uint256",
          "name": "",
          "type": "uint256"
        }
      ],
      "stateMutability": "view",
      "type": "function"
    }
  ],
  "bytecode": "0x60806040526200004f6040518060400160405280601c81526020017f426f6f6b20726563636f6d656e646174696f6e20636f6e7472616374000000008152506200007760201b6200066d1760201c565b606444426200005f9190620001c4565b6200006b919062000261565b60018190555062000308565b62000117816040516024016200008e919062000184565b6040516020818303038152906040527f41304fac000000000000000000000000000000000000000000000000000000007bffffffffffffffffffffffffffffffffffffffffffffffffffffffff19166020820180517bffffffffffffffffffffffffffffffffffffffffffffffffffffffff83818316178352505050506200011a60201b60201c565b50565b60008151905060006a636f6e736f6c652e6c6f679050602083016000808483855afa5050505050565b60006200015082620001a8565b6200015c8185620001b3565b93506200016e8185602086016200022b565b6200017981620002f7565b840191505092915050565b60006020820190508181036000830152620001a0818462000143565b905092915050565b600081519050919050565b600082825260208201905092915050565b6000620001d18262000221565b9150620001de8362000221565b9250827fffffffffffffffffffffffffffffffffffffffffffffffffffffffffffffffff0382111562000216576200021562000299565b5b828201905092915050565b6000819050919050565b60005b838110156200024b5780820151818401526020810190506200022e565b838111156200025b576000848401525b50505050565b60006200026e8262000221565b91506200027b8362000221565b9250826200028e576200028d620002c8565b5b828206905092915050565b7f4e487b7100000000000000000000000000000000000000000000000000000000600052601160045260246000fd5b7f4e487b7100000000000000000000000000000000000000000000000000000000600052601260045260246000fd5b6000601f19601f8301169050919050565b61128080620003186000396000f3fe608060405234801561001057600080fd5b506004361061004c5760003560e01c8063354528e81461005157806368931b211461006f57806374ca6e2d1461008d578063b2acafd1146100a9575b600080fd5b6100596100d9565b6040516100669190610cb8565b60405180910390f35b61007761022a565b6040516100849190610e01565b60405180910390f35b6100a760048036038101906100a29190610a4f565b610258565b005b6100c360048036038101906100be9190610a26565b610655565b6040516100d09190610e01565b60405180910390f35b60606002805480602002602001604051908101604052809291908181526020016000905b8282101561022157838290600052602060002090600302016040518060600160405290816000820160009054906101000a900473ffffffffffffffffffffffffffffffffffffffff1673ffffffffffffffffffffffffffffffffffffffff1673ffffffffffffffffffffffffffffffffffffffff16815260200160018201805461018690610fe7565b80601f01602080910402602001604051908101604052809291908181526020018280546101b290610fe7565b80156101ff5780601f106101d4576101008083540402835291602001916101ff565b820191906000526020600020905b8154815290600101906020018083116101e257829003601f168201915b50505050508152602001600282015481525050815260200190600101906100fd565b50505050905090565b600061025060405180606001604052806021815260200161122a60219139600054610706565b600054905090565b42610384600360003373ffffffffffffffffffffffffffffffffffffffff1673ffffffffffffffffffffffffffffffffffffffff168152602001908152602001600020546102a69190610f13565b106102e6576040517f08c379a00000000000000000000000000000000000000000000000000000000081526004016102dd90610de1565b60405180910390fd5b42600360003373ffffffffffffffffffffffffffffffffffffffff1673ffffffffffffffffffffffffffffffffffffffff16815260200190815260200160002081905550600160008082825461033c9190610f13565b925050819055506103836040518060400160405280601a81526020017f257320686173207265636f6d6d656e646564206120626f6f6b2100000000000081525033836107a2565b600260405180606001604052803373ffffffffffffffffffffffffffffffffffffffff16815260200183815260200142815250908060018154018082558091505060019003906000526020600020906003020160009091909190915060008201518160000160006101000a81548173ffffffffffffffffffffffffffffffffffffffff021916908373ffffffffffffffffffffffffffffffffffffffff1602179055506020820151816001019080519060200190610442929190610906565b50604082015181600201555050606460015442446104609190610f13565b61046a9190610f13565b610474919061104a565b6001819055506104bb6040518060400160405280601781526020017f52616e646f6d20232067656e657261746564203a202564000000000000000000815250600154610706565b600a6001541015610602576105056040518060400160405280600781526020017f257320776f6e210000000000000000000000000000000000000000000000000081525033610841565b60006509184e72a000905047811115610553576040517f08c379a000000000000000000000000000000000000000000000000000000000815260040161054a90610da1565b60405180910390fd5b60003373ffffffffffffffffffffffffffffffffffffffff168260405161057990610ca3565b60006040518083038185875af1925050503d80600081146105b6576040519150601f19603f3d011682016040523d82523d6000602084013e6105bb565b606091505b50509050806105ff576040517f08c379a00000000000000000000000000000000000000000000000000000000081526004016105f690610dc1565b60405180910390fd5b50505b3373ffffffffffffffffffffffffffffffffffffffff167f331808600a4d912b8e9bc588bac830c19f949adcf305313bb165c611a62dff07428360405161064a929190610e1c565b60405180910390a250565b60036020528060005260406000206000915090505481565b610703816040516024016106819190610cda565b6040516020818303038152906040527f41304fac000000000000000000000000000000000000000000000000000000007bffffffffffffffffffffffffffffffffffffffffffffffffffffffff19166020820180517bffffffffffffffffffffffffffffffffffffffffffffffffffffffff83818316178352505050506108dd565b50565b61079e828260405160240161071c929190610d71565b6040516020818303038152906040527f9710a9d0000000000000000000000000000000000000000000000000000000007bffffffffffffffffffffffffffffffffffffffffffffffffffffffff19166020820180517bffffffffffffffffffffffffffffffffffffffffffffffffffffffff83818316178352505050506108dd565b5050565b61083c8383836040516024016107ba93929190610d2c565b6040516020818303038152906040527fe0e9ad4f000000000000000000000000000000000000000000000000000000007bffffffffffffffffffffffffffffffffffffffffffffffffffffffff19166020820180517bffffffffffffffffffffffffffffffffffffffffffffffffffffffff83818316178352505050506108dd565b505050565b6108d98282604051602401610857929190610cfc565b6040516020818303038152906040527f319af333000000000000000000000000000000000000000000000000000000007bffffffffffffffffffffffffffffffffffffffffffffffffffffffff19166020820180517bffffffffffffffffffffffffffffffffffffffffffffffffffffffff83818316178352505050506108dd565b5050565b60008151905060006a636f6e736f6c652e6c6f679050602083016000808483855afa5050505050565b82805461091290610fe7565b90600052602060002090601f016020900481019282610934576000855561097b565b82601f1061094d57805160ff191683800117855561097b565b8280016001018555821561097b579182015b8281111561097a57825182559160200191906001019061095f565b5b509050610988919061098c565b5090565b5b808211156109a557600081600090555060010161098d565b5090565b60006109bc6109b784610e71565b610e4c565b9050828152602081018484840111156109d457600080fd5b6109df848285610fa5565b509392505050565b6000813590506109f681611212565b92915050565b600082601f830112610a0d57600080fd5b8135610a1d8482602086016109a9565b91505092915050565b600060208284031215610a3857600080fd5b6000610a46848285016109e7565b91505092915050565b600060208284031215610a6157600080fd5b600082013567ffffffffffffffff811115610a7b57600080fd5b610a87848285016109fc565b91505092915050565b6000610a9c8383610c35565b905092915050565b610aad81610f69565b82525050565b610abc81610f69565b82525050565b6000610acd82610eb2565b610ad78185610ed5565b935083602082028501610ae985610ea2565b8060005b85811015610b255784840389528151610b068582610a90565b9450610b1183610ec8565b925060208a01995050600181019050610aed565b50829750879550505050505092915050565b6000610b4282610ebd565b610b4c8185610ef1565b9350610b5c818560208601610fb4565b610b6581611137565b840191505092915050565b6000610b7b82610ebd565b610b858185610f02565b9350610b95818560208601610fb4565b610b9e81611137565b840191505092915050565b6000610bb6603983610f02565b9150610bc182611148565b604082019050919050565b6000610bd9602783610f02565b9150610be482611197565b604082019050919050565b6000610bfc600083610ee6565b9150610c07826111e6565b600082019050919050565b6000610c1f600883610f02565b9150610c2a826111e9565b602082019050919050565b6000606083016000830151610c4d6000860182610aa4565b5060208301518482036020860152610c658282610b37565b9150506040830151610c7a6040860182610c85565b508091505092915050565b610c8e81610f9b565b82525050565b610c9d81610f9b565b82525050565b6000610cae82610bef565b9150819050919050565b60006020820190508181036000830152610cd28184610ac2565b905092915050565b60006020820190508181036000830152610cf48184610b70565b905092915050565b60006040820190508181036000830152610d168185610b70565b9050610d256020830184610ab3565b9392505050565b60006060820190508181036000830152610d468186610b70565b9050610d556020830185610ab3565b8181036040830152610d678184610b70565b9050949350505050565b60006040820190508181036000830152610d8b8185610b70565b9050610d9a6020830184610c94565b9392505050565b60006020820190508181036000830152610dba81610ba9565b9050919050565b60006020820190508181036000830152610dda81610bcc565b9050919050565b60006020820190508181036000830152610dfa81610c12565b9050919050565b6000602082019050610e166000830184610c94565b92915050565b6000604082019050610e316000830185610c94565b8181036020830152610e438184610b70565b90509392505050565b6000610e56610e67565b9050610e628282611019565b919050565b6000604051905090565b600067ffffffffffffffff821115610e8c57610e8b611108565b5b610e9582611137565b9050602081019050919050565b6000819050602082019050919050565b600081519050919050565b600081519050919050565b6000602082019050919050565b600082825260208201905092915050565b600081905092915050565b600082825260208201905092915050565b600082825260208201905092915050565b6000610f1e82610f9b565b9150610f2983610f9b565b9250827fffffffffffffffffffffffffffffffffffffffffffffffffffffffffffffffff03821115610f5e57610f5d61107b565b5b828201905092915050565b6000610f7482610f7b565b9050919050565b600073ffffffffffffffffffffffffffffffffffffffff82169050919050565b6000819050919050565b82818337600083830152505050565b60005b83811015610fd2578082015181840152602081019050610fb7565b83811115610fe1576000848401525b50505050565b60006002820490506001821680610fff57607f821691505b60208210811415611013576110126110d9565b5b50919050565b61102282611137565b810181811067ffffffffffffffff8211171561104157611040611108565b5b80604052505050565b600061105582610f9b565b915061106083610f9b565b9250826110705761106f6110aa565b5b828206905092915050565b7f4e487b7100000000000000000000000000000000000000000000000000000000600052601160045260246000fd5b7f4e487b7100000000000000000000000000000000000000000000000000000000600052601260045260246000fd5b7f4e487b7100000000000000000000000000000000000000000000000000000000600052602260045260246000fd5b7f4e487b7100000000000000000000000000000000000000000000000000000000600052604160045260246000fd5b6000601f19601f8301169050919050565b7f547279696e6720746f207769746864726177206d6f7265206d6f6e657920746860008201527f616e20776861742074686520636f6e7472616374206861732e00000000000000602082015250565b7f4661696c656420746f207769746864726177206d6f6e65792066726f6d20636f60008201527f6e74726163742e00000000000000000000000000000000000000000000000000602082015250565b50565b7f576169742031356d000000000000000000000000000000000000000000000000600082015250565b61121b81610f69565b811461122657600080fd5b5056fe54686572652061726520256420626f6f6b207265636f6d6d656e646174696f6e73a2646970667358221220ee2d385f1e937514ea18b296e2034f5f8328a3b4a98c9407ba4e30b3d092f38564736f6c63430008040033",
  "linkReferences": {},
  "deployedLinkReferences": {}
}